{
  "contractName": "MEDCCrowdsale",
  "abi": [
    {
      "constant": true,
      "inputs": [],
      "name": "ICO_FINISH",
      "outputs": [
        {
          "name": "",
          "type": "uint256"
        }
      ],
      "payable": false,
      "stateMutability": "view",
      "type": "function"
    },
    {
      "constant": true,
      "inputs": [],
      "name": "ICO_MIN_CAP",
      "outputs": [
        {
          "name": "",
          "type": "uint256"
        }
      ],
      "payable": false,
      "stateMutability": "view",
      "type": "function"
    },
    {
      "constant": true,
      "inputs": [],
      "name": "distributionAddress",
      "outputs": [
        {
          "name": "",
          "type": "address"
        }
      ],
      "payable": false,
      "stateMutability": "view",
      "type": "function"
    },
    {
      "constant": true,
      "inputs": [],
      "name": "preIcoTokensSold",
      "outputs": [
        {
          "name": "",
          "type": "uint256"
        }
      ],
      "payable": false,
      "stateMutability": "view",
      "type": "function"
    },
    {
      "constant": false,
      "inputs": [],
      "name": "endICO",
      "outputs": [],
      "payable": false,
      "stateMutability": "nonpayable",
      "type": "function"
    },
    {
      "constant": true,
      "inputs": [],
      "name": "tokensSold",
      "outputs": [
        {
          "name": "",
          "type": "uint256"
        }
      ],
      "payable": false,
      "stateMutability": "view",
      "type": "function"
    },
    {
      "constant": false,
      "inputs": [],
      "name": "refund",
      "outputs": [],
      "payable": false,
      "stateMutability": "nonpayable",
      "type": "function"
    },
    {
      "constant": true,
      "inputs": [
        {
          "name": "",
          "type": "address"
        }
      ],
      "name": "contributorEthCollected",
      "outputs": [
        {
          "name": "",
          "type": "uint256"
        }
      ],
      "payable": false,
      "stateMutability": "view",
      "type": "function"
    },
    {
      "constant": false,
      "inputs": [
        {
          "name": "_address",
          "type": "address"
        },
        {
          "name": "_value",
          "type": "uint256"
        }
      ],
      "name": "sendEtherManually",
      "outputs": [],
      "payable": false,
      "stateMutability": "nonpayable",
      "type": "function"
    },
    {
      "constant": false,
      "inputs": [],
      "name": "acceptOwnership",
      "outputs": [],
      "payable": false,
      "stateMutability": "nonpayable",
      "type": "function"
    },
    {
      "constant": true,
      "inputs": [],
      "name": "isIcoFinished",
      "outputs": [
        {
          "name": "",
          "type": "bool"
        }
      ],
      "payable": false,
      "stateMutability": "view",
      "type": "function"
    },
    {
      "constant": true,
      "inputs": [],
      "name": "tokenPrice",
      "outputs": [
        {
          "name": "",
          "type": "uint256"
        }
      ],
      "payable": false,
      "stateMutability": "view",
      "type": "function"
    },
    {
      "constant": true,
      "inputs": [],
      "name": "owner",
      "outputs": [
        {
          "name": "",
          "type": "address"
        }
      ],
      "payable": false,
      "stateMutability": "view",
      "type": "function"
    },
    {
      "constant": true,
      "inputs": [],
      "name": "PRE_ICO_MAX_CAP",
      "outputs": [
        {
          "name": "",
          "type": "uint256"
        }
      ],
      "payable": false,
      "stateMutability": "view",
      "type": "function"
    },
    {
      "constant": true,
      "inputs": [],
      "name": "ethCollected",
      "outputs": [
        {
          "name": "",
          "type": "uint256"
        }
      ],
      "payable": false,
      "stateMutability": "view",
      "type": "function"
    },
    {
      "constant": true,
      "inputs": [
        {
          "name": "_time",
          "type": "uint256"
        }
      ],
      "name": "getCurrentBonus",
      "outputs": [
        {
          "name": "",
          "type": "uint256"
        }
      ],
      "payable": false,
      "stateMutability": "view",
      "type": "function"
    },
    {
      "constant": true,
      "inputs": [],
      "name": "ICO_START",
      "outputs": [
        {
          "name": "",
          "type": "uint256"
        }
      ],
      "payable": false,
      "stateMutability": "view",
      "type": "function"
    },
    {
      "constant": false,
      "inputs": [
        {
          "name": "_address",
          "type": "address"
        },
        {
          "name": "_value",
          "type": "uint256"
        }
      ],
      "name": "sendTokensManually",
      "outputs": [],
      "payable": false,
      "stateMutability": "nonpayable",
      "type": "function"
    },
    {
      "constant": true,
      "inputs": [],
      "name": "newOwner",
      "outputs": [
        {
          "name": "",
          "type": "address"
        }
      ],
      "payable": false,
      "stateMutability": "view",
      "type": "function"
    },
    {
      "constant": true,
      "inputs": [],
      "name": "MIN_DEPOSIT",
      "outputs": [
        {
          "name": "",
          "type": "uint256"
        }
      ],
      "payable": false,
      "stateMutability": "view",
      "type": "function"
    },
    {
      "constant": false,
      "inputs": [
        {
          "name": "_newOwner",
          "type": "address"
        }
      ],
      "name": "transferOwnership",
      "outputs": [],
      "payable": false,
      "stateMutability": "nonpayable",
      "type": "function"
    },
    {
      "constant": true,
      "inputs": [],
      "name": "token",
      "outputs": [
        {
          "name": "",
          "type": "address"
        }
      ],
      "payable": false,
      "stateMutability": "view",
      "type": "function"
    },
    {
      "inputs": [
        {
          "name": "_tokenAddress",
          "type": "address"
        }
      ],
      "payable": true,
      "stateMutability": "payable",
      "type": "constructor"
    },
    {
      "payable": true,
      "stateMutability": "payable",
      "type": "fallback"
    }
  ],
  "bytecode": "0x60606040526012600255611b5860045573925ecbbad1dc1b46e9da57827bd3bd2aa20937e8600560006101000a81548173ffffffffffffffffffffffffffffffffffffffff021916908373ffffffffffffffffffffffffffffffffffffffff160217905550635ac5f3a060075562375f0060075401600855681043561a88293000006009556000600d60006101000a81548160ff02191690831515021790555060405160208061134983398101604052808051906020019091905050336000806101000a81548173ffffffffffffffffffffffffffffffffffffffff021916908373ffffffffffffffffffffffffffffffffffffffff16021790555080600360006101000a81548173ffffffffffffffffffffffffffffffffffffffff021916908373ffffffffffffffffffffffffffffffffffffffff160217905550336000806101000a81548173ffffffffffffffffffffffffffffffffffffffff021916908373ffffffffffffffffffffffffffffffffffffffff160217905550600360009054906101000a900473ffffffffffffffffffffffffffffffffffffffff1673ffffffffffffffffffffffffffffffffffffffff16636596cff3306040518263ffffffff167c0100000000000000000000000000000000000000000000000000000000028152600401808273ffffffffffffffffffffffffffffffffffffffff1673ffffffffffffffffffffffffffffffffffffffff168152602001915050600060405180830381600087803b151561023857600080fd5b5af1151561024557600080fd5b505050506110f1806102586000396000f300606060405260043610610128576000357c0100000000000000000000000000000000000000000000000000000000900463ffffffff1680632ce0b4f61461017657806331a3b8731461019f57806337fb7e21146101c857806346e2a1741461021d5780634f24840914610246578063518ab2a81461025b578063590e1ae3146102845780635a1b155b14610299578063659d7aaa146102e657806379ba5097146103285780637a543a941461033d5780637ff9b5961461036a5780638da5cb5b14610393578063993d13bd146103e8578063bee2e13414610411578063bf1c0ec01461043a578063d0ca12ba14610471578063d1729a4a1461049a578063d4ee1d90146104dc578063e1e158a514610531578063f2fde38b1461055a578063fc0c546a14610593575b426007541115801561013c57506008544211155b151561014757600080fd5b67016345785d8a0000341015151561015e57600080fd5b6101693334426105e8565b151561017457600080fd5b005b341561018157600080fd5b61018961095d565b6040518082815260200191505060405180910390f35b34156101aa57600080fd5b6101b2610963565b6040518082815260200191505060405180910390f35b34156101d357600080fd5b6101db610969565b604051808273ffffffffffffffffffffffffffffffffffffffff1673ffffffffffffffffffffffffffffffffffffffff16815260200191505060405180910390f35b341561022857600080fd5b61023061098f565b6040518082815260200191505060405180910390f35b341561025157600080fd5b610259610995565b005b341561026657600080fd5b61026e610ad0565b6040518082815260200191505060405180910390f35b341561028f57600080fd5b610297610ad6565b005b34156102a457600080fd5b6102d0600480803573ffffffffffffffffffffffffffffffffffffffff16906020019091905050610bfa565b6040518082815260200191505060405180910390f35b34156102f157600080fd5b610326600480803573ffffffffffffffffffffffffffffffffffffffff16906020019091908035906020019091905050610c12565b005b341561033357600080fd5b61033b610c87565b005b341561034857600080fd5b610350610d42565b604051808215151515815260200191505060405180910390f35b341561037557600080fd5b61037d610d55565b6040518082815260200191505060405180910390f35b341561039e57600080fd5b6103a6610d5b565b604051808273ffffffffffffffffffffffffffffffffffffffff1673ffffffffffffffffffffffffffffffffffffffff16815260200191505060405180910390f35b34156103f357600080fd5b6103fb610d80565b6040518082815260200191505060405180910390f35b341561041c57600080fd5b610424610d90565b6040518082815260200191505060405180910390f35b341561044557600080fd5b61045b6004808035906020019091905050610d96565b6040518082815260200191505060405180910390f35b341561047c57600080fd5b610484610dda565b6040518082815260200191505060405180910390f35b34156104a557600080fd5b6104da600480803573ffffffffffffffffffffffffffffffffffffffff16906020019091908035906020019091905050610de0565b005b34156104e757600080fd5b6104ef610f2e565b604051808273ffffffffffffffffffffffffffffffffffffffff1673ffffffffffffffffffffffffffffffffffffffff16815260200191505060405180910390f35b341561053c57600080fd5b610544610f54565b6040518082815260200191505060405180910390f35b341561056557600080fd5b610591600480803573ffffffffffffffffffffffffffffffffffffffff16906020019091905050610f60565b005b341561059e57600080fd5b6105a661103b565b604051808273ffffffffffffffffffffffffffffffffffffffff1673ffffffffffffffffffffffffffffffffffffffff16815260200191505060405180910390f35b6000806106006004548561106190919063ffffffff16565b905061063b606461062261061386610d96565b8461106190919063ffffffff16565b81151561062b57fe5b04826110a790919063ffffffff16565b905061065284600b546110a790919063ffffffff16565b600b8190555082621baf8060075401101515610734576b1027e72f1f1281308800000061068a826006546110a790919063ffffffff16565b11151561072a576106a6816006546110a790919063ffffffff16565b600681905550600560009054906101000a900473ffffffffffffffffffffffffffffffffffffffff1673ffffffffffffffffffffffffffffffffffffffff166108fc3073ffffffffffffffffffffffffffffffffffffffff16319081150290604051600060405180830381858888f19350505050151561072557600080fd5b610733565b60009150610955565b5b8262375f00600754011015156108615761079684600c60008873ffffffffffffffffffffffffffffffffffffffff1673ffffffffffffffffffffffffffffffffffffffff168152602001908152602001600020546110a790919063ffffffff16565b600c60008773ffffffffffffffffffffffffffffffffffffffff1673ffffffffffffffffffffffffffffffffffffffff16815260200190815260200160002081905550600954600b5410151561086057600560009054906101000a900473ffffffffffffffffffffffffffffffffffffffff1673ffffffffffffffffffffffffffffffffffffffff166108fc3073ffffffffffffffffffffffffffffffffffffffff16319081150290604051600060405180830381858888f19350505050151561085f57600080fd5b5b5b61087681600a546110a790919063ffffffff16565b600a81905550600360009054906101000a900473ffffffffffffffffffffffffffffffffffffffff1673ffffffffffffffffffffffffffffffffffffffff16639c1f020a86836040518363ffffffff167c0100000000000000000000000000000000000000000000000000000000028152600401808373ffffffffffffffffffffffffffffffffffffffff1673ffffffffffffffffffffffffffffffffffffffff16815260200182815260200192505050600060405180830381600087803b151561094057600080fd5b5af1151561094d57600080fd5b505050600191505b509392505050565b60085481565b60095481565b600560009054906101000a900473ffffffffffffffffffffffffffffffffffffffff1681565b60065481565b6000809054906101000a900473ffffffffffffffffffffffffffffffffffffffff1673ffffffffffffffffffffffffffffffffffffffff163373ffffffffffffffffffffffffffffffffffffffff161415156109f057600080fd5b620697806008540142118015610a135750600d60009054906101000a900460ff16155b1515610a1e57600080fd5b6001600d60006101000a81548160ff021916908315150217905550600360009054906101000a900473ffffffffffffffffffffffffffffffffffffffff1673ffffffffffffffffffffffffffffffffffffffff16634f2484096040518163ffffffff167c0100000000000000000000000000000000000000000000000000000000028152600401600060405180830381600087803b1515610abe57600080fd5b5af11515610acb57600080fd5b505050565b600a5481565b60085442111515610ae657600080fd5b6000600c60003373ffffffffffffffffffffffffffffffffffffffff1673ffffffffffffffffffffffffffffffffffffffff16815260200190815260200160002054111515610b3457600080fd5b3373ffffffffffffffffffffffffffffffffffffffff166108fc600c60003373ffffffffffffffffffffffffffffffffffffffff1673ffffffffffffffffffffffffffffffffffffffff168152602001908152602001600020549081150290604051600060405180830381858888f193505050501515610bb357600080fd5b6000600c60003373ffffffffffffffffffffffffffffffffffffffff1673ffffffffffffffffffffffffffffffffffffffff16815260200190815260200160002081905550565b600c6020528060005260406000206000915090505481565b6000809054906101000a900473ffffffffffffffffffffffffffffffffffffffff1673ffffffffffffffffffffffffffffffffffffffff163373ffffffffffffffffffffffffffffffffffffffff16141515610c6d57600080fd5b610c788282426105e8565b1515610c8357600080fd5b5050565b600160009054906101000a900473ffffffffffffffffffffffffffffffffffffffff1673ffffffffffffffffffffffffffffffffffffffff163373ffffffffffffffffffffffffffffffffffffffff161415610d4057600160009054906101000a900473ffffffffffffffffffffffffffffffffffffffff166000806101000a81548173ffffffffffffffffffffffffffffffffffffffff021916908373ffffffffffffffffffffffffffffffffffffffff1602179055505b565b600d60009054906101000a900460ff1681565b60045481565b6000809054906101000a900473ffffffffffffffffffffffffffffffffffffffff1681565b6b1027e72f1f1281308800000081565b600b5481565b600080821415610da4574291505b4262093a8083011115610dba57601e9050610dd5565b42621baf8083011115610dd057600f9050610dd5565b600a90505b919050565b60075481565b6000809054906101000a900473ffffffffffffffffffffffffffffffffffffffff1673ffffffffffffffffffffffffffffffffffffffff163373ffffffffffffffffffffffffffffffffffffffff16141515610e3b57600080fd5b610e5081600a546110a790919063ffffffff16565b600a81905550600360009054906101000a900473ffffffffffffffffffffffffffffffffffffffff1673ffffffffffffffffffffffffffffffffffffffff16639c1f020a83836040518363ffffffff167c0100000000000000000000000000000000000000000000000000000000028152600401808373ffffffffffffffffffffffffffffffffffffffff1673ffffffffffffffffffffffffffffffffffffffff16815260200182815260200192505050600060405180830381600087803b1515610f1a57600080fd5b5af11515610f2757600080fd5b5050505050565b600160009054906101000a900473ffffffffffffffffffffffffffffffffffffffff1681565b67016345785d8a000081565b6000809054906101000a900473ffffffffffffffffffffffffffffffffffffffff1673ffffffffffffffffffffffffffffffffffffffff163373ffffffffffffffffffffffffffffffffffffffff16141515610fbb57600080fd5b600073ffffffffffffffffffffffffffffffffffffffff168173ffffffffffffffffffffffffffffffffffffffff1614151515610ff757600080fd5b80600160006101000a81548173ffffffffffffffffffffffffffffffffffffffff021916908373ffffffffffffffffffffffffffffffffffffffff16021790555050565b600360009054906101000a900473ffffffffffffffffffffffffffffffffffffffff1681565b60008060008414806110735750600083145b1561108157600091506110a0565b828402905082848281151561109257fe5b0414151561109c57fe5b8091505b5092915050565b60008082840190508381101515156110bb57fe5b80915050929150505600a165627a7a723058209e7de7bf6143ef4cc8cbb906c5653501b4100b93988fc6a808366e3964d4e7320029",
  "source": "pragma solidity ^0.4.20;\n\n//standart library for uint\nlibrary SafeMath { \n  function mul(uint256 a, uint256 b) internal pure returns (uint256) {\n    if (a == 0 || b == 0){\n        return 0;\n    }\n    uint256 c = a * b;\n    assert(c / a == b);\n    return c;\n  }\n\n  function sub(uint256 a, uint256 b) internal pure returns (uint256) {\n    assert(b <= a);\n    return a - b;\n  }\n\n  function add(uint256 a, uint256 b) internal pure returns (uint256) {\n    uint256 c = a + b;\n    assert(c >= a);\n    return c;\n  }\n\n  function pow(uint256 a, uint256 b) internal pure returns (uint256){ //power function\n    if (b == 0){\n      return 1;\n    }\n    uint256 c = a**b;\n    assert (c >= a);\n    return c;\n  }\n}\n//standart contract to identify owner\ncontract Ownable {\n\n  address public owner;\n\n  address public newOwner;\n\n  modifier onlyOwner() {\n    require(msg.sender == owner);\n    _;\n  }\n\n  function Ownable() public {\n    owner = msg.sender;\n  }\n\n  function transferOwnership(address _newOwner) public onlyOwner {\n    require(_newOwner != address(0));\n    newOwner = _newOwner;\n  }\n\n  function acceptOwnership() public {\n    if (msg.sender == newOwner) {\n      owner = newOwner;\n    }\n  }\n}\n\n//Abstract Token contract\ncontract MEDCToken{\n  function setCrowdsaleContract (address) public;\n  function sendCrowdsaleTokens(address, uint256)  public;\n  function endICO () public;\n}\n\n//Crowdsale contract\ncontract MEDCCrowdsale is Ownable{\n\n  using SafeMath for uint;\n\n  uint decimals = 18;\n\n  // Token contract address\n  MEDCToken public token;\n\n  uint public tokenPrice = 7000; //7000 tokens for 1 ether;\n\n  address public distributionAddress = 0x925EcbBAd1dc1b46e9dA57827BD3BD2Aa20937e8;\n\n  // Constructor\n  function MEDCCrowdsale(address _tokenAddress) public payable{    \n    token = MEDCToken(_tokenAddress);\n    owner = msg.sender;\n\n    token.setCrowdsaleContract(this);\n  }\n\n  uint public constant MIN_DEPOSIT = 0.1 ether;\n\n  //ICO CONSTANTS\n  uint public constant PRE_ICO_MAX_CAP = 5000000000 ether;//5000000000*(uint(10).pow(decimals)); \n  uint public preIcoTokensSold;\n\n\n  uint public ICO_START = 1522922400; // 5th April 2018 12:00 UTC+2\n  uint public ICO_FINISH = ICO_START + 6 weeks;\n\n  uint public ICO_MIN_CAP = 300 ether; // ether\n  // uint public ICO_MAX_CAP = //all tokens;\n\n  //END ICO CONSTANTS\n  uint public tokensSold;\n  uint public ethCollected;\n  \n  function getCurrentBonus (uint _time) public view returns(uint){\n    if(_time == 0){\n      _time = now;\n    }\n\n    if(_time + 7 days > now){\n      return 30;\n    }\n    if(_time + 21 days > now){\n      return 15;\n    }\n    return 10;\n  }\n  \n  mapping (address => uint) public contributorEthCollected;\n  \n  function () public payable {\n    require (ICO_START <= now && now <= ICO_FINISH);\n    require (msg.value >= MIN_DEPOSIT);\n    \n    require (buy(msg.sender, msg.value, now));\n  }\n\n  function buy (address _address, uint _value, uint _time) internal returns(bool) {\n    uint tokensToSend = _value.mul(tokenPrice);\n    tokensToSend = tokensToSend.add(tokensToSend.mul(getCurrentBonus(_time))/100);\n\n    ethCollected = ethCollected.add(_value);\n\n    if (ICO_START + 3 weeks >= _time){\n      if (preIcoTokensSold.add(tokensToSend) <= PRE_ICO_MAX_CAP){\n        preIcoTokensSold = preIcoTokensSold.add(tokensToSend);\n        distributionAddress.transfer(address(this).balance);\n      }else{\n        return false;\n      }\n    }\n\n    if (ICO_START + 6 weeks >= _time){\n      contributorEthCollected[_address] = contributorEthCollected[_address].add(_value);\n      if (ethCollected >= ICO_MIN_CAP){\n        distributionAddress.transfer(address(this).balance);\n      }  \n    }\n\n    tokensSold = tokensSold.add(tokensToSend);\n    token.sendCrowdsaleTokens(_address, tokensToSend);\n    return true;    \n\n  }\n\n  function sendEtherManually (address _address, uint _value) public onlyOwner {\n    require (buy(_address, _value, now));\n  }\n\n  function sendTokensManually (address _address, uint _value) public onlyOwner {\n    tokensSold = tokensSold.add(_value);\n    token.sendCrowdsaleTokens(_address,_value);\n  }\n  \n\n  bool public isIcoFinished = false;\n\n  function endICO () public onlyOwner {\n    require (now > ICO_FINISH + 5 days && !isIcoFinished);\n    isIcoFinished = true;\n    token.endICO();\n  }\n\n  function refund () public {\n    require (now > ICO_FINISH);\n    require (contributorEthCollected[msg.sender] > 0);\n\n    msg.sender.transfer(contributorEthCollected[msg.sender]);\n    contributorEthCollected[msg.sender] = 0;\n  }\n}",
  "sourcePath": "/home/romuch/Desktop/MEDC_Token/contracts/MEDCCrowdsaleAll.sol",
  "compiler": {
    "name": "solc",
    "version": "0.4.21+commit.dfe3193c.Emscripten.clang"
  },
  "schemaVersion": "1.0.1",
  "updatedAt": "2018-03-31T12:18:15.903Z"
}