{
  "contractName": "MEDCToken",
  "abi": [
    {
      "constant": true,
      "inputs": [],
      "name": "name",
      "outputs": [
        {
          "name": "",
          "type": "string"
        }
      ],
      "payable": false,
      "stateMutability": "view",
      "type": "function"
    },
    {
      "constant": false,
      "inputs": [
        {
          "name": "_spender",
          "type": "address"
        },
        {
          "name": "_amount",
          "type": "uint256"
        }
      ],
      "name": "approve",
      "outputs": [
        {
          "name": "success",
          "type": "bool"
        }
      ],
      "payable": false,
      "stateMutability": "nonpayable",
      "type": "function"
    },
    {
      "constant": true,
      "inputs": [],
      "name": "totalSupply",
      "outputs": [
        {
          "name": "",
          "type": "uint256"
        }
      ],
      "payable": false,
      "stateMutability": "view",
      "type": "function"
    },
    {
      "constant": false,
      "inputs": [
        {
          "name": "_from",
          "type": "address"
        },
        {
          "name": "_to",
          "type": "address"
        },
        {
          "name": "_amount",
          "type": "uint256"
        }
      ],
      "name": "transferFrom",
      "outputs": [
        {
          "name": "success",
          "type": "bool"
        }
      ],
      "payable": false,
      "stateMutability": "nonpayable",
      "type": "function"
    },
    {
      "constant": true,
      "inputs": [],
      "name": "decimals",
      "outputs": [
        {
          "name": "",
          "type": "uint8"
        }
      ],
      "payable": false,
      "stateMutability": "view",
      "type": "function"
    },
    {
      "constant": true,
      "inputs": [],
      "name": "crowdsaleContract",
      "outputs": [
        {
          "name": "",
          "type": "address"
        }
      ],
      "payable": false,
      "stateMutability": "view",
      "type": "function"
    },
    {
      "constant": false,
      "inputs": [],
      "name": "endICO",
      "outputs": [],
      "payable": false,
      "stateMutability": "nonpayable",
      "type": "function"
    },
    {
      "constant": false,
      "inputs": [
        {
          "name": "_address",
          "type": "address"
        }
      ],
      "name": "setCrowdsaleContract",
      "outputs": [],
      "payable": false,
      "stateMutability": "nonpayable",
      "type": "function"
    },
    {
      "constant": true,
      "inputs": [
        {
          "name": "_address",
          "type": "address"
        }
      ],
      "name": "balanceOf",
      "outputs": [
        {
          "name": "balance",
          "type": "uint256"
        }
      ],
      "payable": false,
      "stateMutability": "view",
      "type": "function"
    },
    {
      "constant": false,
      "inputs": [],
      "name": "acceptOwnership",
      "outputs": [],
      "payable": false,
      "stateMutability": "nonpayable",
      "type": "function"
    },
    {
      "constant": true,
      "inputs": [],
      "name": "owner",
      "outputs": [
        {
          "name": "",
          "type": "address"
        }
      ],
      "payable": false,
      "stateMutability": "view",
      "type": "function"
    },
    {
      "constant": true,
      "inputs": [],
      "name": "symbol",
      "outputs": [
        {
          "name": "",
          "type": "string"
        }
      ],
      "payable": false,
      "stateMutability": "view",
      "type": "function"
    },
    {
      "constant": false,
      "inputs": [
        {
          "name": "_address",
          "type": "address"
        },
        {
          "name": "_value",
          "type": "uint256"
        }
      ],
      "name": "sendCrowdsaleTokens",
      "outputs": [],
      "payable": false,
      "stateMutability": "nonpayable",
      "type": "function"
    },
    {
      "constant": false,
      "inputs": [
        {
          "name": "_to",
          "type": "address"
        },
        {
          "name": "_amount",
          "type": "uint256"
        }
      ],
      "name": "transfer",
      "outputs": [
        {
          "name": "success",
          "type": "bool"
        }
      ],
      "payable": false,
      "stateMutability": "nonpayable",
      "type": "function"
    },
    {
      "constant": true,
      "inputs": [],
      "name": "newOwner",
      "outputs": [
        {
          "name": "",
          "type": "address"
        }
      ],
      "payable": false,
      "stateMutability": "view",
      "type": "function"
    },
    {
      "constant": true,
      "inputs": [
        {
          "name": "_owner",
          "type": "address"
        },
        {
          "name": "_spender",
          "type": "address"
        }
      ],
      "name": "allowance",
      "outputs": [
        {
          "name": "remaining",
          "type": "uint256"
        }
      ],
      "payable": false,
      "stateMutability": "view",
      "type": "function"
    },
    {
      "constant": false,
      "inputs": [
        {
          "name": "_newOwner",
          "type": "address"
        }
      ],
      "name": "transferOwnership",
      "outputs": [],
      "payable": false,
      "stateMutability": "nonpayable",
      "type": "function"
    },
    {
      "inputs": [],
      "payable": false,
      "stateMutability": "nonpayable",
      "type": "constructor"
    },
    {
      "anonymous": false,
      "inputs": [
        {
          "indexed": true,
          "name": "_from",
          "type": "address"
        },
        {
          "indexed": true,
          "name": "_to",
          "type": "address"
        },
        {
          "indexed": false,
          "name": "_value",
          "type": "uint256"
        }
      ],
      "name": "Transfer",
      "type": "event"
    },
    {
      "anonymous": false,
      "inputs": [
        {
          "indexed": true,
          "name": "_owner",
          "type": "address"
        },
        {
          "indexed": true,
          "name": "_spender",
          "type": "address"
        },
        {
          "indexed": false,
          "name": "_value",
          "type": "uint256"
        }
      ],
      "name": "Approval",
      "type": "event"
    }
  ],
  "bytecode": "0x60606040526b87b595f2383509fe1000000060025573925ecbbad1dc1b46e9da57827bd3bd2aa20937e8600660006101000a81548173ffffffffffffffffffffffffffffffffffffffff021916908373ffffffffffffffffffffffffffffffffffffffff160217905550341561007457600080fd5b336000806101000a81548173ffffffffffffffffffffffffffffffffffffffff021916908373ffffffffffffffffffffffffffffffffffffffff160217905550336000806101000a81548173ffffffffffffffffffffffffffffffffffffffff021916908373ffffffffffffffffffffffffffffffffffffffff160217905550600254600360003073ffffffffffffffffffffffffffffffffffffffff1673ffffffffffffffffffffffffffffffffffffffff16815260200190815260200160002081905550611624806101496000396000f3006060604052600436106100f1576000357c0100000000000000000000000000000000000000000000000000000000900463ffffffff16806306fdde03146100f6578063095ea7b31461018457806318160ddd146101de57806323b872dd14610207578063313ce5671461028057806331616395146102af5780634f248409146103045780636596cff31461031957806370a082311461035257806379ba50971461039f5780638da5cb5b146103b457806395d89b41146104095780639c1f020a14610497578063a9059cbb146104d9578063d4ee1d9014610533578063dd62ed3e14610588578063f2fde38b146105f4575b600080fd5b341561010157600080fd5b61010961062d565b6040518080602001828103825283818151815260200191508051906020019080838360005b8381101561014957808201518184015260208101905061012e565b50505050905090810190601f1680156101765780820380516001836020036101000a031916815260200191505b509250505060405180910390f35b341561018f57600080fd5b6101c4600480803573ffffffffffffffffffffffffffffffffffffffff16906020019091908035906020019091905050610666565b604051808215151515815260200191505060405180910390f35b34156101e957600080fd5b6101f1610758565b6040518082815260200191505060405180910390f35b341561021257600080fd5b610266600480803573ffffffffffffffffffffffffffffffffffffffff1690602001909190803573ffffffffffffffffffffffffffffffffffffffff16906020019091908035906020019091905050610762565b604051808215151515815260200191505060405180910390f35b341561028b57600080fd5b610293610a48565b604051808260ff1660ff16815260200191505060405180910390f35b34156102ba57600080fd5b6102c2610a4d565b604051808273ffffffffffffffffffffffffffffffffffffffff1673ffffffffffffffffffffffffffffffffffffffff16815260200191505060405180910390f35b341561030f57600080fd5b610317610a73565b005b341561032457600080fd5b610350600480803573ffffffffffffffffffffffffffffffffffffffff16906020019091905050610e71565b005b341561035d57600080fd5b610389600480803573ffffffffffffffffffffffffffffffffffffffff16906020019091905050610f12565b6040518082815260200191505060405180910390f35b34156103aa57600080fd5b6103b2610f5b565b005b34156103bf57600080fd5b6103c7611016565b604051808273ffffffffffffffffffffffffffffffffffffffff1673ffffffffffffffffffffffffffffffffffffffff16815260200191505060405180910390f35b341561041457600080fd5b61041c61103b565b6040518080602001828103825283818151815260200191508051906020019080838360005b8381101561045c578082015181840152602081019050610441565b50505050905090810190601f1680156104895780820380516001836020036101000a031916815260200191505b509250505060405180910390f35b34156104a257600080fd5b6104d7600480803573ffffffffffffffffffffffffffffffffffffffff16906020019091908035906020019091905050611074565b005b34156104e457600080fd5b610519600480803573ffffffffffffffffffffffffffffffffffffffff16906020019091908035906020019091905050611263565b604051808215151515815260200191505060405180910390f35b341561053e57600080fd5b610546611439565b604051808273ffffffffffffffffffffffffffffffffffffffff1673ffffffffffffffffffffffffffffffffffffffff16815260200191505060405180910390f35b341561059357600080fd5b6105de600480803573ffffffffffffffffffffffffffffffffffffffff1690602001909190803573ffffffffffffffffffffffffffffffffffffffff1690602001909190505061145f565b6040518082815260200191505060405180910390f35b34156105ff57600080fd5b61062b600480803573ffffffffffffffffffffffffffffffffffffffff169060200190919050506114e6565b005b6040805190810160405280600a81526020017f4d45444943554c45554d0000000000000000000000000000000000000000000081525081565b600081600460003373ffffffffffffffffffffffffffffffffffffffff1673ffffffffffffffffffffffffffffffffffffffff16815260200190815260200160002060008573ffffffffffffffffffffffffffffffffffffffff1673ffffffffffffffffffffffffffffffffffffffff168152602001908152602001600020819055508273ffffffffffffffffffffffffffffffffffffffff163373ffffffffffffffffffffffffffffffffffffffff167f8c5be1e5ebec7d5bd14f71427d1e84f3dd0314c0f7b2291e5b200ac8c7c3b925846040518082815260200191505060405180910390a36001905092915050565b6000600254905090565b60008273ffffffffffffffffffffffffffffffffffffffff163073ffffffffffffffffffffffffffffffffffffffff161415151561079f57600080fd5b6107f182600360008773ffffffffffffffffffffffffffffffffffffffff1673ffffffffffffffffffffffffffffffffffffffff168152602001908152602001600020546115c190919063ffffffff16565b600360008673ffffffffffffffffffffffffffffffffffffffff1673ffffffffffffffffffffffffffffffffffffffff168152602001908152602001600020819055506108c382600460008773ffffffffffffffffffffffffffffffffffffffff1673ffffffffffffffffffffffffffffffffffffffff16815260200190815260200160002060003373ffffffffffffffffffffffffffffffffffffffff1673ffffffffffffffffffffffffffffffffffffffff168152602001908152602001600020546115c190919063ffffffff16565b600460008673ffffffffffffffffffffffffffffffffffffffff1673ffffffffffffffffffffffffffffffffffffffff16815260200190815260200160002060003373ffffffffffffffffffffffffffffffffffffffff1673ffffffffffffffffffffffffffffffffffffffff1681526020019081526020016000208190555061099582600360008673ffffffffffffffffffffffffffffffffffffffff1673ffffffffffffffffffffffffffffffffffffffff168152602001908152602001600020546115da90919063ffffffff16565b600360008573ffffffffffffffffffffffffffffffffffffffff1673ffffffffffffffffffffffffffffffffffffffff168152602001908152602001600020819055508273ffffffffffffffffffffffffffffffffffffffff168473ffffffffffffffffffffffffffffffffffffffff167fddf252ad1be2c89b69c2b068fc378daa952ba7f163c4a11628f55a4df523b3ef846040518082815260200191505060405180910390a3600190509392505050565b601281565b600560009054906101000a900473ffffffffffffffffffffffffffffffffffffffff1681565b6000600560009054906101000a900473ffffffffffffffffffffffffffffffffffffffff1673ffffffffffffffffffffffffffffffffffffffff163373ffffffffffffffffffffffffffffffffffffffff16141515610ad157600080fd5b610b25600360003073ffffffffffffffffffffffffffffffffffffffff1673ffffffffffffffffffffffffffffffffffffffff168152602001908152602001600020546002546115c190919063ffffffff16565b9050610ba7603282811515610b3657fe5b0460036000600660009054906101000a900473ffffffffffffffffffffffffffffffffffffffff1673ffffffffffffffffffffffffffffffffffffffff1673ffffffffffffffffffffffffffffffffffffffff168152602001908152602001600020546115da90919063ffffffff16565b60036000600660009054906101000a900473ffffffffffffffffffffffffffffffffffffffff1673ffffffffffffffffffffffffffffffffffffffff1673ffffffffffffffffffffffffffffffffffffffff16815260200190815260200160002081905550610c6a603282811515610c1b57fe5b04600360003073ffffffffffffffffffffffffffffffffffffffff1673ffffffffffffffffffffffffffffffffffffffff168152602001908152602001600020546115c190919063ffffffff16565b600360003073ffffffffffffffffffffffffffffffffffffffff1673ffffffffffffffffffffffffffffffffffffffff16815260200190815260200160002081905550600660009054906101000a900473ffffffffffffffffffffffffffffffffffffffff1673ffffffffffffffffffffffffffffffffffffffff163073ffffffffffffffffffffffffffffffffffffffff167fddf252ad1be2c89b69c2b068fc378daa952ba7f163c4a11628f55a4df523b3ef603284811515610d2a57fe5b046040518082815260200191505060405180910390a3610d94600360003073ffffffffffffffffffffffffffffffffffffffff1673ffffffffffffffffffffffffffffffffffffffff168152602001908152602001600020546002546115c190919063ffffffff16565b60028190555060003073ffffffffffffffffffffffffffffffffffffffff167fddf252ad1be2c89b69c2b068fc378daa952ba7f163c4a11628f55a4df523b3ef600360003073ffffffffffffffffffffffffffffffffffffffff1673ffffffffffffffffffffffffffffffffffffffff168152602001908152602001600020546040518082815260200191505060405180910390a36000600360003073ffffffffffffffffffffffffffffffffffffffff1673ffffffffffffffffffffffffffffffffffffffff1681526020019081526020016000208190555050565b600073ffffffffffffffffffffffffffffffffffffffff16600560009054906101000a900473ffffffffffffffffffffffffffffffffffffffff1673ffffffffffffffffffffffffffffffffffffffff16141515610ece57600080fd5b80600560006101000a81548173ffffffffffffffffffffffffffffffffffffffff021916908373ffffffffffffffffffffffffffffffffffffffff16021790555050565b6000600360008373ffffffffffffffffffffffffffffffffffffffff1673ffffffffffffffffffffffffffffffffffffffff168152602001908152602001600020549050919050565b600160009054906101000a900473ffffffffffffffffffffffffffffffffffffffff1673ffffffffffffffffffffffffffffffffffffffff163373ffffffffffffffffffffffffffffffffffffffff16141561101457600160009054906101000a900473ffffffffffffffffffffffffffffffffffffffff166000806101000a81548173ffffffffffffffffffffffffffffffffffffffff021916908373ffffffffffffffffffffffffffffffffffffffff1602179055505b565b6000809054906101000a900473ffffffffffffffffffffffffffffffffffffffff1681565b6040805190810160405280600481526020017f4d4544430000000000000000000000000000000000000000000000000000000081525081565b600560009054906101000a900473ffffffffffffffffffffffffffffffffffffffff1673ffffffffffffffffffffffffffffffffffffffff163373ffffffffffffffffffffffffffffffffffffffff161415156110d057600080fd5b61112281600360003073ffffffffffffffffffffffffffffffffffffffff1673ffffffffffffffffffffffffffffffffffffffff168152602001908152602001600020546115c190919063ffffffff16565b600360003073ffffffffffffffffffffffffffffffffffffffff1673ffffffffffffffffffffffffffffffffffffffff168152602001908152602001600020819055506111b781600360008573ffffffffffffffffffffffffffffffffffffffff1673ffffffffffffffffffffffffffffffffffffffff168152602001908152602001600020546115da90919063ffffffff16565b600360008473ffffffffffffffffffffffffffffffffffffffff1673ffffffffffffffffffffffffffffffffffffffff168152602001908152602001600020819055508173ffffffffffffffffffffffffffffffffffffffff163073ffffffffffffffffffffffffffffffffffffffff167fddf252ad1be2c89b69c2b068fc378daa952ba7f163c4a11628f55a4df523b3ef836040518082815260200191505060405180910390a35050565b60008273ffffffffffffffffffffffffffffffffffffffff163073ffffffffffffffffffffffffffffffffffffffff16141515156112a057600080fd5b6112f282600360003373ffffffffffffffffffffffffffffffffffffffff1673ffffffffffffffffffffffffffffffffffffffff168152602001908152602001600020546115c190919063ffffffff16565b600360003373ffffffffffffffffffffffffffffffffffffffff1673ffffffffffffffffffffffffffffffffffffffff1681526020019081526020016000208190555061138782600360008673ffffffffffffffffffffffffffffffffffffffff1673ffffffffffffffffffffffffffffffffffffffff168152602001908152602001600020546115da90919063ffffffff16565b600360008573ffffffffffffffffffffffffffffffffffffffff1673ffffffffffffffffffffffffffffffffffffffff168152602001908152602001600020819055508273ffffffffffffffffffffffffffffffffffffffff163373ffffffffffffffffffffffffffffffffffffffff167fddf252ad1be2c89b69c2b068fc378daa952ba7f163c4a11628f55a4df523b3ef846040518082815260200191505060405180910390a36001905092915050565b600160009054906101000a900473ffffffffffffffffffffffffffffffffffffffff1681565b6000600460008473ffffffffffffffffffffffffffffffffffffffff1673ffffffffffffffffffffffffffffffffffffffff16815260200190815260200160002060008373ffffffffffffffffffffffffffffffffffffffff1673ffffffffffffffffffffffffffffffffffffffff16815260200190815260200160002054905092915050565b6000809054906101000a900473ffffffffffffffffffffffffffffffffffffffff1673ffffffffffffffffffffffffffffffffffffffff163373ffffffffffffffffffffffffffffffffffffffff1614151561154157600080fd5b600073ffffffffffffffffffffffffffffffffffffffff168173ffffffffffffffffffffffffffffffffffffffff161415151561157d57600080fd5b80600160006101000a81548173ffffffffffffffffffffffffffffffffffffffff021916908373ffffffffffffffffffffffffffffffffffffffff16021790555050565b60008282111515156115cf57fe5b818303905092915050565b60008082840190508381101515156115ee57fe5b80915050929150505600a165627a7a7230582022d32658769c8368bddd962db372b59b7289f65970b2a6940cb981026c7fb8420029",
  "source": "pragma solidity ^0.4.20;\n\n//standart library for uint\nlibrary SafeMath { \n  function mul(uint256 a, uint256 b) internal pure returns (uint256) {\n    if (a == 0 || b == 0){\n        return 0;\n    }\n    uint256 c = a * b;\n    assert(c / a == b);\n    return c;\n  }\n\n  function sub(uint256 a, uint256 b) internal pure returns (uint256) {\n    assert(b <= a);\n    return a - b;\n  }\n\n  function add(uint256 a, uint256 b) internal pure returns (uint256) {\n    uint256 c = a + b;\n    assert(c >= a);\n    return c;\n  }\n\n  function pow(uint256 a, uint256 b) internal pure returns (uint256){ //power function\n    if (b == 0){\n      return 1;\n    }\n    uint256 c = a**b;\n    assert (c >= a);\n    return c;\n  }\n}\n\n//standart contract to identify owner\ncontract Ownable {\n\n  address public owner;\n\n  address public newOwner;\n\n  modifier onlyOwner() {\n    require(msg.sender == owner);\n    _;\n  }\n\n  function Ownable() public {\n    owner = msg.sender;\n  }\n\n  function transferOwnership(address _newOwner) public onlyOwner {\n    require(_newOwner != address(0));\n    newOwner = _newOwner;\n  }\n\n  function acceptOwnership() public {\n    if (msg.sender == newOwner) {\n      owner = newOwner;\n    }\n  }\n}\n\ncontract MEDCToken is Ownable { //ERC - 20 token contract\n  using SafeMath for uint;\n  // Triggered when tokens are transferred.\n  event Transfer(address indexed _from, address indexed _to, uint256 _value);\n\n  // Triggered whenever approve(address _spender, uint256 _value) is called.\n  event Approval(address indexed _owner, address indexed _spender, uint256 _value);\n\n  string public constant symbol = \"MEDC\";\n  string public constant name = \"MEDICULEUM\"; //CHANGE IT\n  uint8 public constant decimals = 18;\n  uint256 _totalSupply = 42000000000 ether;\n\n  // Balances for each account\n  mapping(address => uint256) balances;\n\n  // Owner of account approves the transfer of an amount to another account\n  mapping(address => mapping (address => uint256)) allowed;\n\n  function totalSupply() public view returns (uint256) { //standart ERC-20 function\n    return _totalSupply;\n  }\n\n  function balanceOf(address _address) public view returns (uint256 balance) {//standart ERC-20 function\n    return balances[_address];\n  }\n  \n  //standart ERC-20 function\n  function transfer(address _to, uint256 _amount) public returns (bool success) {\n    require(this != _to);\n    balances[msg.sender] = balances[msg.sender].sub(_amount);\n    balances[_to] = balances[_to].add(_amount);\n    emit Transfer(msg.sender,_to,_amount);\n    return true;\n  }\n\n  //standart ERC-20 function\n  function transferFrom(address _from, address _to, uint256 _amount) public returns(bool success){\n    require(this != _to);\n    balances[_from] = balances[_from].sub(_amount);\n    allowed[_from][msg.sender] = allowed[_from][msg.sender].sub(_amount);\n    balances[_to] = balances[_to].add(_amount);\n    emit Transfer(_from,_to,_amount);\n    return true;\n  }\n  //standart ERC-20 function\n  function approve(address _spender, uint256 _amount)public returns (bool success) { \n    allowed[msg.sender][_spender] = _amount;\n    emit Approval(msg.sender, _spender, _amount);\n    return true;\n  }\n\n  //standart ERC-20 function\n  function allowance(address _owner, address _spender)public constant returns (uint256 remaining) {\n    return allowed[_owner][_spender];\n  }\n\n  //Constructor\n  function MEDCToken() public {\n    owner = msg.sender;\n    balances[this] = _totalSupply;\n  }\n\n  address public crowdsaleContract;\n\n  function setCrowdsaleContract (address _address) public{\n    require(crowdsaleContract == address(0));\n\n    crowdsaleContract = _address;\n  }\n\n  function sendCrowdsaleTokens (address _address, uint _value) public {\n    require(msg.sender == crowdsaleContract);\n\n    balances[this] = balances[this].sub(_value);\n    balances[_address] = balances[_address].add(_value);\n        \n    emit Transfer(this,_address,_value);    \n  }\n\n  address distributionAddress = 0x925EcbBAd1dc1b46e9dA57827BD3BD2Aa20937e8;\n\n  function endICO () public{\n    require (msg.sender == crowdsaleContract);\n    \n    uint tokensSold = _totalSupply.sub(balances[this]);\n\n    balances[distributionAddress] = balances[distributionAddress].add(tokensSold/50); //2%\n    balances[address(this)] = balances[address(this)].sub(tokensSold/50);\n\n    emit Transfer(address(this), distributionAddress, tokensSold/50);\n\n    _totalSupply = _totalSupply.sub(balances[address(this)]);\n\n    emit Transfer(this, 0, balances[this]);\n    balances[address(this)] = 0;\n  }\n}",
  "sourcePath": "/home/romuch/Desktop/MEDC_Token/contracts/MEDCTokenAll.sol",
  "compiler": {
    "name": "solc",
    "version": "0.4.21+commit.dfe3193c.Emscripten.clang"
  },
  "schemaVersion": "1.0.1",
  "updatedAt": "2018-03-31T12:18:15.905Z"
}